:1000000012C021C020C01FC01EC01DC01DC01BC00B
:100010001AC019C018C017C016C015C014C013C02C
:1000200012C011C010C011241FBECFE5D4E0DEBF46
:10003000CDBF22E0A0E6B0E001C01D92A736B20716
:10004000E1F747D094C0DCCF1F920F920FB60F920A
:1000500011242F933F934F938F939F93EF93FF938D
:1000600080916102909162020097E1F02091630219
:1000700030916402F901EF59FF4F4081019790934D
:100080006202809361022F5F3F4F211582E03807A3
:10009000B8F430936402209363024423B9F0C19A08
:1000A000949A02C0C1989498FF91EF919F918F917B
:1000B0004F913F912F910F900FBE0F901F90189569
:1000C00010926402109263024111E9CFC198949A90
:1000D000EBCF1FBC89E08EBD8AE09AE19BBD8ABD53
:1000E00080E189BFB99A8B9A8C9A78948091610249
:1000F000909162028115924091F040B34695417013
:1001000090B380916000813061F040936000939AD9
:1001100080916102909162028115924071F79398EB
:10012000E5CF4111F2CFF89420916502309166023B
:10013000F901EF59FF4F9170908380916102909186
:100140006202019690936202809361022F5F3F4F9B
:10015000211582E0380730F430936602209365025F
:100160007894D3CF1092660210926502F9CFF8947A
:02017000FFCFBF
:00000001FF
