:1000000012C021C020C020C01EC01DC01CC01BC00B
:100010001AC019C018C017C016C015C014C013C02C
:1000200012C011C010C011241FBECFE5D4E0DEBF46
:10003000CDBF22E0A0E6B0E001C01D92A736B20716
:10004000E1F745D088C0DCCF1F920F920FB60F9218
:1000500011242F933F934F938F939F93EF93FF938D
:100060008091610290916202009719F120916302E0
:1000700030916402F901EF59FF4F4081019790934D
:100080006202809361022F5F3F4F211582E03807A3
:1000900028F4309364022093630204C01092640237
:1000A00010926302442311F0C19A01C0C198949A3E
:1000B00002C0C1989498FF91EF919F918F914F91B9
:1000C0003F912F910F900FBE0F901F9018958CE0CD
:1000D00085BD87E683BD80E889BFB99A8B9A8C9AE3
:1000E000789480916102909162028115924011F49E
:1000F0009398F7CF40B34695417020B3809160004C
:10010000813029F5411123C0F894809165029091C6
:100110006602FC01EF59FF4F21702083209161029C
:10012000309162022F5F3F4F309362022093610251
:100130000196811522E0920728F49093660280933D
:10014000650204C010926602109265027894409392
:0A0150006000939AC6CFF894FFCF29
:00000001FF
